:020000040002F8
:10600000005E0020C1630200C9630200CB6302008E
:10601000CD630200CF630200D163020000000000E4
:10602000000000000000000000000000D363020038
:10603000D563020000000000D7630200D9630200AC
:106040001D660200DB63020059690200DB63020087
:10605000DB630200DB63020079650200DB630200A0
:10606000DB630200DB630200DB630200DB63020030
:10607000DB630200DB630200DB630200DB63020020
:10608000DB63020075660200DB630200DB63020073
:10609000DB630200DB63020085660200DB63020053
:1060A000DB630200DB630200DB630200DB630200F0
:1060B000DB630200DB630200000000000000000060
:1060C000DB630200DB630200DB630200DB630200D0
:1060D000DB630200DB630200DB6302000000000000
:1060E00000000000000000000000000000000000B0
:1060F00000000000000000000000000000000000A0
:10610000000000000000000000000000000000008F
:10611000000000000000000000000000000000007F
:10612000000000000000000000000000000000006F
:10613000000000000000000000000000000000005F
:10614000000000000000000000000000000000004F
:10615000000000000000000000000000000000003F
:10616000000000000000000000000000000000002F
:10617000000000000000000000000000000000001F
:10618000000000000000000000000000000000000F
:1061900000000000000000000000000000000000FF
:1061A00000000000000000000000000000000000EF
:1061B00000000000000000000000000000000000DF
:1061C00000000000000000000000000000000000CF
:1061D00000000000000000000000000000000000BF
:1061E00000000000000000000000000000000000AF
:1061F000000000000000000000000000000000009F
:10620000DFF80CD000F07AF900480047F5B2020040
:10621000005E002030B450E8012F93B2C4892344BB
:106220008489A34228BF1B1B0489A34202BFBFF37A
:106230002F8F002007E0C3EA020340E80134002C5E
:10624000E9D14FF001000A6030BC704750E8012FDF
:10625000C2EA024240E801210029F7D1704730B478
:1062600050E8022F1FFAA2F3C488A34202BFBFF373
:106270002F8F00200DE0C48923448489A34228BFC6
:106280001B1BC2EA034340E80234002CE8D14FF064
:1062900001000A6030BC704750E8022FC2EA224277
:1062A00040E802210029F7D17047034653E8022F46
:1062B000D988B2EB324F4FF0000017BF92B241EADB
:1062C000014142EA014104E05A68B2EB324F08BF93
:1062D000012043E80212002AE8D1704730B4044696
:1062E00054E8000F0D4644E80053002BF8D1156028
:1062F00030BC704730B4044654E8000F40EA010552
:1063000044E80053002BF7D1156030BC704730B41F
:10631000044654E8000F00EA010544E80053002B4E
:10632000F7D1156030BC704730B4044654E8000F14
:1063300080EA010544E80053002BF7D1156030BC1A
:10634000704730B4044654E8000F00EB010544E800
:106350000053002BF7D1156030BC704730B40446B1
:1063600054E8000FA0EB010544E80053002BF7D1DF
:10637000156030BC704770B404464FF0000054E81C
:10638000006F0D68AE4207BF44E80023012044E8D7
:1063900000630E60002B1CBF0020F0E770BC70474C
:1063A00030B4044654E8000F88422CBF451A054615
:1063B00044E80053002BF5D1156030BC7047000055
:1063C0000648804706480047FEE7FEE7FEE7FEE78F
:1063D000FEE7FEE7FEE7FEE7FEE7FEE7896602006E
:1063E000016202002DE9F05F0546002092469B46BF
:1063F00088460646814640241BE0284641464746DB
:10640000224600F06BF853465A46C01A914110D309
:1064100011461846224600F016F82D1A67EB0108BF
:106420004F4622460120002100F00DF817EB00092D
:106430004E41201EA4F10104DFDC484631462A46C5
:106440004346BDE8F09F202A04DB203A00FA02F11F
:10645000002070479140C2F1200320FA03F3194352
:106460009040704700487047B027030040EA01039E
:106470009B0703D009E008C9121F08C0042AFAD2FA
:1064800003E011F8013B00F8013B521EF9D27047BE
:10649000D2B201E000F8012B491EFBD27047002266
:1064A000F6E710B513460A4604461946FFF7F0FF13
:1064B000204610BD421C10F8011B0029FBD1801A98
:1064C000704730B504460020034600E05B1C934251
:1064D00003D2E05CCD5C401BF8D030BD202A04DB49
:1064E000203A21FA02F00021704721FA02F3D0404D
:1064F000C2F120029140084319467047064C074DEF
:1065000006E0E06840F0010394E807009847103483
:10651000AC42F6D3FFF778FE3C3F03005C3F03003C
:1065200070B58C1810F8015B15F0070301D110F855
:10653000013B2A1106D110F8012B03E010F8016B82
:1065400001F8016B5B1EF9D12B0705D40023521E05
:106550000DD401F8013BFAE710F8013BCB1A921C6D
:1065600003E013F8015B01F8015B521EF9D5A1426B
:10657000D8D3002070BD00002DE9F8430025DFF8D6
:1065800094804FF4807601242F460095304606F023
:10659000B1F838B1D8F80403204203D0304606F0F1
:1065A0009FF82543361D64007F1CB6B2082FEDD33B
:1065B0004FF4BE74204606F09DF848B1204606F020
:1065C0008FF845F000456A460121002006F058F892
:1065D00015F0FF0F16D0012600242E420ED008EB36
:1065E0008401D1F81005D1F81015C0F304200A4A2F
:1065F000C1F3014152F8242002B190477600641C97
:10660000082CEAD3002D02DA684609F0B3FABDE897
:10661000F8830000006000406C35002070B54FF436
:106620008076304605F0D4FB114CB50560B130469C
:1066300005F0D5FB0120C5F80803607920B90120D9
:1066400060712168002088474FF48276304605F05B
:10665000BFFB00280AD0304605F0C1FB0220C5F878
:1066600008032168BDE870400120084770BD0000A4
:10667000F429002002490248091F096800680847F8
:10668000682A002006F080BEF0B5A449A4484FF067
:1066900080540B68D4F830210078D4F83411551C9C
:1066A000C0F3031006D0944601270026BCF1060F64
:1066B00003D00AE003F0FF0CF6E7B4F82453DFF848
:1066C00064C2C5F30425CCF80050DDB2062D06D116
:1066D000032804D1DFF854C2934DCCF87450551CF4
:1066E00004D09446BCF1060F03D00AE003F0FF0C7F
:1066F000F8E7D4F84452DFF838C2C5F34235CCF895
:10670000005003F0FF0CBCF1060F08D1032806D19E
:10671000884DD5F800C02CF0807CC5F800C0551C11
:1067200004D09446BCF1060F03D00BE003F0FF0C3D
:10673000F8E74FF08045C5F80C61C5F810617C4D55
:106740002D1F2E60DDB2062D08D1032806D1DFF8FB
:10675000E0C103250CF1640CCCF80050DDB2062D2D
:1067600010D103280ED1DFF8D0C10525CCF8005098
:10677000714D78352F60704D08352E600CF1040690
:106780003F253560551C04D016460D46062E03D015
:106790005BE0DEB20546F9E7ED1E012D55D9674DE8
:1067A0002D68674E3560654D2D1D2D68361D356091
:1067B000624D08352D68361D3560604D0C352D68ED
:1067C000361D35605D4D10352D68361D35605B4DCD
:1067D00014352D68361D3560584D18352D68584EC6
:1067E00020363560554D1C352D68361D3560534DAE
:1067F00020352D68361D3560504D24352D68361DE9
:1068000035604E4D28352D68361D35604B4D2C3585
:106810002D68361D3560494D30352D68484E40365F
:106820003560464D34352D68361D3560434D38355D
:106830002D68361D3560414D3C352D68361D35605F
:106840003E4D40352D68361D3560551C03D016462B
:10685000062E02D007E0DEB2FAE7D4F85852394EDD
:1068600005F04F053560551C03D01346062B02D0AA
:1068700008E0DBB2FAE734480368DB0702D06FF0C8
:1068800001030360062A07D1C91E022904D92F4833
:10689000016841F48061016026487438016841F460
:1068A00070010160BFF34F8FBFF36F8FD4E94C10BD
:1068B0004FF01022062907D1C01E032804D9D2F8B0
:1068C00008021B491C310860D2F80002002803DBD3
:1068D000D2F8040200281FDA012007F009FA152176
:1068E000C2F800121A480368002BFCD0C2F8041248
:1068F00001680029FCD0002007F0FAF9BFF34F8FA0
:106900000C48F0380168134A01F4E061114301605A
:10691000BFF34F8F00BFFDE7F0BD0000E00F00F0B8
:10692000E80F00F0403501400DF0ADBA00C007405F
:106930003C050040FCED00E010560040040400104F
:1069400020C50040E40E0040000400403C17004019
:1069500000E401400400FA05014800680047000017
:10696000FC29002002E008C8121F08C1002AFAD141
:1069700070477047002001E001C1121F002AFBD1BF
:10698000704700000121202803DA814005480140BA
:1069900003E0402802DA2038814009B10120704725
:1069A00000207047FC06FFBD2DE9F843804643F206
:1069B000020659B9694608F0ADFAB04202D008B1F2
:1069C00000F0EEFA9DF80000800744D40021404614
:1069D00008F0AAFA05003ED0112D3CD01F482049EE
:1069E000401AC708022000EB07440D2D0AD00B2DDA
:1069F0001DD0B5421FD11B4920464246BDE8F84391
:106A000006F07EB820464246174906F079F8132171
:106A1000404676DF00281ED006F068FD024601B031
:106A200020464346BDE8F04310A106F070B820466A
:106A300042461C49E2E7284606F058FD024601207E
:106A400000EB0740434618A106F061F82846BDE870
:106A5000F84300F0A5BABDE8F8830000B43F030096
:106A60006C3F0300F03003007C30030073645F620E
:106A70006C655F6761705F646973636F6E6E656399
:106A80007428292072657475726E656420257320E0
:106A90006F6E20636F6E6E5F68616E646C6520253B
:106AA000642E00003C310300417373657274696E9B
:106AB000672E20706D5F636F6E6E5F7365637572B6
:106AC0006528292072657475726E656420257320AF
:106AD0006F6E20636F6E6E5F68616E646C652025FB
:106AE000642E000010B560B159B102780B785208DD
:106AF000B2EB530F05D10622401C491CFFF7E1FC05
:106B000008B1002010BD012010BD800701D0002079
:106B1000704701207047C3688B4206D81144006952
:106B2000491E814201D8012070470020704790F82B
:106B30002400012801D01F207047EE20704710B5B7
:106B400001220221002001F08DFD08B1072810D19B
:106B500007220221012001F085FD08B1072808D194
:106B600000210A22084601F07DFD08B1072800D166
:106B7000002010BD00B5ABB0AC216846FFF78FFC1C
:106B800002208DF8000001208DF8020006218DF80A
:106B900003108DF87C0000218DF87D004FF44860D3
:106BA000ADF8101005912490282144F250602291F4
:106BB000259040F6B8310848239129906946074846
:106BC00000F009FD08B100F0EBF90121034800F0E5
:106BD000FFFC2BB000BD000009DD0200C02B00202F
:106BE00010B560B10B480C49401AC008032101EBF5
:106BF00000400AA105F080FF08F04CFF03E00321EC
:106C00000A4800F099FD002803D0BDE8104000F0CC
:106C1000C7B910BD2C4003006C3F0300457261737F
:106C20006520626F6E64732100000000C02B00209D
:106C300070B58CB015460E4600236C46C3F10F01AB
:106C4000415CE1545B1C102BF8D30D2104F11000C2
:106C5000FFF725FC0020C0F10F02315C2244401CEC
:106C600011740328F7D3684646DF0020C0F10F01F6
:106C7000214491F820102954401C0328F6D30CB06D
:106C800070BD00F08DB9000000B587B012480590C6
:106C900005A9124805F02FF808B100F081F9142178
:106CA0006846FFF7FCFB12210D48FFF7F8FB0D4883
:106CB0000090122002900A4803900B4801900B4864
:106CC000049006486946743800F0D4FE002801D0CC
:106CD00000F066F907B000BDF3CF0200B42B00202E
:106CE000F42F0020ADDD0200836C02002428002078
:106CF00070B5104800F06CFE08B100F051F90F4873
:106D00000F490D4E401AC108032000EB0140012538
:106D1000357004460BA105F0EFFE064800F064FE56
:106D200008B100F03DF975702046BDE870400CA137
:106D300005F0E2BE402B0020502200202C40030032
:106D40006C3F03004E657720416C6572742053746C
:106D50006174653A20456E61626C65642E000000C6
:106D6000556E7265616420416C6572742053746164
:106D700074653A20456E61626C65642E0000000007
:106D8000022001F073BB000070B51849184A164D77
:106D9000891AC9086878032202EB0144022801D04D
:106DA00001280CD1FF21134800F07FFF18B10828FB
:106DB00001D000F0F5F820460FA105F09DFE2878DF
:106DC000022801D001280ED1FF210A4800F09AFEC6
:106DD00018B1082801D000F0E3F82046BDE8704063
:106DE00014A105F089BE70BD502200202C40030084
:106DF0006C3F0300402B00204E6F7469667920744D
:106E0000686520556E7265616420416C65727420FE
:106E10006368617261637465726973746963206623
:106E20006F7220616C6C2063617465676F72696555
:106E3000732E00004E6F7469667920746865204E69
:106E4000657720416C657274206368617261637458
:106E50006572697374696320666F7220616C6C205F
:106E600063617465676F726965732E000149C97843
:106E700000F0ECBFC829002070B50024064D06E0E4
:106E80006868012110F8340006F0A4FB641C28781F
:106E90008442F5D3002070BD082A0020F8B51646BC
:106EA0000C4605460A2A01D20720F8BD06F08CFCE4
:106EB00018B906F04FFC0028F7D1134F10211348E2
:106EC0007D603C70BE60FFF7EAFA0020C7E904006D
:106ED0000F4E0DE005EBC4003168009181788DF80C
:106EE000011000780B4A694606F0C4FB0028DCD18B
:106EF000641EE4B2EED2BDE8F84005480021064A1F
:106F0000001D00F05FB80000082A0020183600209D
:106F100014240300F5A302008990020072B605F064
:106F200095FE00BF05F0CCFC0028FBD111481249AA
:106F3000401AC408012000EB044010A105F0DCFD5C
:106F400011480068C00700D000BE022000EB0440DA
:106F50000EA105F0D1FDBFF34F8F0B48E438016857
:106F60000E4A01F4E06111430160BFF34F8F00BF8F
:106F7000FDE700002C4003006C3F03004661746194
:106F80006C206572726F7200F0ED00E053797374DB
:106F9000656D207265736574000000000400FA05D9
:106FA0000EB500210091CDE901106A4644F20100BE
:106FB000FFF7B4FF0EBD0000014802F0A4B90000C5
:106FC000482A002010B55AB100684FF0FF3401295B
:106FD0004261C0E9024400D000210161002010BDDF
:106FE000072010BD38B51148082358224168009188
:106FF0000F49006804F0DFFB002815D10D4A6946EF
:107000000D4802F085F904000ED101210A4802F072
:10701000FAF90123094A1946074802F04CF90649D2
:10702000012008390870204638BD00001C240300E8
:10703000383600200D050300482A0020FFFF7F009E
:10704000F8B50446002617460D468DF800606846E0
:1070500000F042F8D4E90201C04370EA010005D013
:107060009DF8000000F05CF80020F8BD03F0A8F9DE
:1070700040197141C4E902019DF8000000F050F888
:10708000A761206900B125612146BDE8F8400020D4
:107090000AF080BA38B5044600208DF80000684632
:1070A00000F01AF8D4E90201C04370EA01000DD0E3
:1070B0004FF0FF30C4E902009DF8000000F030F806
:1070C0002146BDE8384001200AF064BA9DF800006E
:1070D00000F026F8002038BD30B5EFF3108172B60D
:1070E0000D4A9468012324B10370002900D162B6CF
:1070F00030BD93604FF0E023D3F88051074C25401A
:107100001560C3F88041D3F8844154605A17C3F81E
:10711000842100220270E8E790360020FC06FFBDC3
:107120000B498A68002A11D000280FD1EFF3108094
:1071300072B60B684FF0E022C2F800314B68C2F81B
:10714000043100228A60002800D162B67047000036
:10715000903600202DE9F041064608680C46411C97
:107160004FF0A0474FF0010506D005FA00F1C7F82F
:107170000815206805F05EFA6068411C02D0002105
:1071800005F046FA3168A069C1F82405607D227DCA
:1071900031681043C1F86C05D4E900123068C0F8BA
:1071A0001425C0F80C15207D012815D1A068411CBC
:1071B00002D0002105F02CFAE068411C05D0854082
:1071C000C7F80855E06805F035FAD4E902123068CE
:1071D000C0F80825C0F81015BDE8F0812DE9F04190
:1071E000064608680C46411C4FF0A0474FF00105C9
:1071F00006D005FA00F1C7F80815206805F024FA52
:107200006068411C02D0002105F00BFA3168A069CA
:10721000C1F82405607D217D32680843C2F86C0501
:10722000D4E900123068C0F80C15C0F81425207D90
:10723000012815D1A068411C02D0002105F0F1F908
:10724000E068411C05D08540C7F80855E06805F0A6
:10725000FBF9D4E902123068C0F80825C0F810150F
:10726000BDE8F08103F00CBF2DE9F04781460588A9
:107270004A484FF000088AB001784246284600F09C
:10728000FDFD99F80500400701D4002176E005F5E1
:107290008077B8B205AB0122072107F091FA04000C
:1072A0003F48404A4FF00101A0EB02004FEAD000F6
:1072B00001EB00460AD0204606F018F90246304697
:1072C0002B46394905F023FC214629E0284603F0E6
:1072D00033FC4FF6FF71044688422BD18A4606984C
:1072E00003F094FB0446504510D00146284603F0B5
:1072F00003FC2846FFF7BAFDE0B9284609F0CCFBAD
:107300002846FFF7B3FD0028BFD013E007F02EFC9E
:107310000446504508D1304624A105F0EDFB042178
:10732000284609F0E7FBB0E70146284603F0E4FBF6
:107330004FF00108B8B22246072107F0B9FA07005A
:107340001BD0862F1ED006F0D1F8024630462B46C1
:107350002349009405F0E3FB3946284609F0CAFBAF
:107360000021484607F024F9B8F1000F02D020466A
:1073700003F0CCFB0AB0BDE8F0870121484607F0D6
:1073800017F9F7E7142217496846FFF76FF8ADF8C9
:107390000250684602F090FAEFE70000C82900208A
:1073A000BC3F03006C3F030038340300436F756C2F
:1073B00064206E6F7420616C6C6F63617465206E05
:1073C000657720706565725F696420666F722069F9
:1073D0006E636F6D696E6720626F6E642E000000D1
:1073E00054350300B42303002DE9FC47002517881A
:1073F0000646158090F82D001446894630B13A466D
:107400002146484600F0D4FD051E09D1B0784FF062
:107410000C0A18B32088C846001DB84202D950464D
:10742000BDE8FC87684679DF0028F9D12088032170
:1074300008F8001020881921401C80B2208008F82C
:1074400000102088401C80B2208000EB0801BDF8AD
:1074500000000AF06EFA218808442080F0780222A9
:10746000C8B1218896F9033001F1030C4846BC45A8
:10747000D5D8425421884FF0010C491C89B2218093
:1074800000F801C02188491C89B2218009F8013027
:107490002088401C20807068B8B1218890F90030A5
:1074A00001F1030C4846BC45B9D8425421880A2250
:1074B000491C89B2218042542188491C89B221800B
:1074C00009F801302088401C2080308950B1CDE976
:1074D00000474B460622022106F108000AF082FB13
:1074E000051E9DD1308A50B1CDE900474B46072299
:1074F000032106F110000AF075FB051E90D1308BB8
:1075000050B1CDE900474B461522142106F1180071
:107510000AF068FB051E83D1306A30B13B46224633
:10752000494601F0D7FB051EDBD1706A30B13B46FE
:107530002246494603F0B6FF051ED2D196F82C002C
:1075400038B13B4622464946304609F00FFC051E3D
:10755000C7D1307838B13B4622464946304604F020
:107560002FF8051EBDD128465AE718B5044600205D
:10757000ADF8000013466A46204600F006F80028E1
:1075800002D0BDF80000204418BD70B5E0B1DAB1FA
:10759000002402E0045D2C44A4B2651C8D4206D296
:1075A0001688A642F6D8061976789E42F2D18C4209
:1075B0000AD2A31C005D9BB200B1401E0004000C67
:1075C00002D01C188C4201D9002070BD138070BD00
:1075D00080F8301070472DE9F0410D00044606D0C8
:1075E0002CB195F87A000026012803D006E00E2081
:1075F000BDE8F08195F89800012829D0D5F8A000C1
:10760000042825D0D5F89C00042821D04FF001088B
:10761000A6702C2205F17801201DFEF727FF84F8C3
:107620003060D5F8A4006063D5F8A800A0634FF6D9
:10763000FF70A4F8240404F58260C4F82004C4F8A0
:107640002664A4F82A6484F82C64207810B104E03D
:107650000720CDE7FF2084F8540004F155072046A9
:10766000C4F81074FFF763FAA4F8140404F2144287
:1076700039462846FFF7B8FE0028B9D104F2312078
:10768000C4F818042046FFF752FAA4F81C0404F2C8
:107690001C4205F13C00D4F81814FFF7A5FE0028A1
:1076A000A6D184F85180208BA4F8480084F83C804F
:1076B000266484F85060606900216064454604F1E6
:1076C0003C02781E72DF002892D1257090E710B539
:1076D0000288102A1BD0112A20D0262A1DD1007A18
:1076E0000C46012801D0022817D1A0780521401CA2
:1076F000B0FBF1F201FB1201204600F01DF800285A
:107700000BD0A16B002908D0BDE810400847C27B10
:10771000012A02D18088A1F8240410BD0C46002162
:1077200084F82E148088B4F824148842F5D1207986
:107730000028F2D10121DFE72DE9F05F044600784F
:107740000F4698B1A7700025C4F82654A4F82A540F
:1077500084F82C54A079012608B1012F09D0E079D2
:1077600080B1012F05D0022F03D00BE00820BDE827
:10777000F09F616B21B184F82D640820884701E0F7
:1077800084F82D5404F2274100200A5C0AB13046E7
:1077900003E0401C0628F8D300204FF002084FF009
:1077A000030B012F06D0022F0CD0032F0FD0042F74
:1077B00015D110E0A17929B194F8241011B908B1BC
:1077C00030460DE0E17911B108B1404608E0207A79
:1077D00008B1584604E0607A08B1042000E0284669
:1077E000A070616B41B1032801D0042804D16079F5
:1077F00010B194F82E0498B184F82F5404F13C0091
:1078000018210746FEF74BFE84F83C6004F12C007B
:1078100007F0DEFA58B194F82C0084F8510008E023
:1078200084F8305484F82F6407208847E6E784F80A
:10783000516094F8240058B104F1280007F0C8FA08
:1078400020B194F8280084F8520001E084F85260D6
:1078500084F85050A27804F2264104F582694FF072
:10786000060A052A64D2DFE802F07C030F224200F8
:1078700084F83160C4F82054C4E9101584F83C80C1
:107880008020A4F8480055E084F8318094F8242042
:10789000384612B10722027001E080F800B0228A57
:1078A0008281C4F820544160E168B96042E06069B7
:1078B000B860208BB88194F824003D46002820460B
:1078C00002D084F83CA001E084F83C600AF056F94C
:1078D00050B185F814800421204602F028FA38BB04
:1078E000052184F8311021E084F831B01EE0E06910
:1078F000B860208CB88194F824003D4600282046CA
:1079000002D084F83CA001E084F83C600AF036F92B
:1079100048B185F814800421204602F008FA38B9ED
:1079200084F831A002E0042084F83100C4F82094E7
:10793000A07878B13A4604F15400D4F8201472DFEC
:1079400000287FF414AF94F8301094F8540073DFDB
:107950000028F6D1616B11B194F8310088470020FE
:1079600005E784F83150F5E710B58AB00446087889
:107970008DF8200048788DF8210020216846FEF718
:107980008EFD0D49CDE9021401208DF80000A18C77
:10799000ADF812100221ADF8161008A906910021C9
:1079A000ADF814108DF8100022896946E06D04F0DE
:1079B00017F90AB010BD0000BF9D0200B0F84410D6
:1079C000002201F069B8B0F85410002201F064B848
:1079D0000189A1F57F42FF3A04D0B0F8441001229A
:1079E00001F05AB8082070470189A1F57F42FF3A9B
:1079F00004D0B0F85410012201F04EB808207047AE
:107A000070B50E460400154630D0104603F04CFA0F
:107A100070B3268125B305F1080104F11C0001F0C3
:107A20009FF805F1120104F1260001F099F805F123
:107A30001C0104F1300001F093F805F1260104F176
:107A40003A0001F08DF84420298E015305F13601EA
:107A500004F14A0001F084F85420B5F840100153B5
:107A60003146E06DBDE8704004F082B80E2070BD74
:107A7000072070BD70B50D46040041D0EDB32868F5
:107A8000D8B32869C8B360212046FEF708FD4FF639
:107A9000FF7020812868206068686060A868E060E6
:107AA000E86820612869E0650120A07541F61101B0
:107AB000A18284F83C0042F646216187A077891EA6
:107AC000A18384F84C00491CA4F84A1084F82800CB
:107AD000891CE18484F83200491C218684F848001E
:107AE00042F60211A4F8461084F85800A4F8561083
:107AF00004F11400BDE8704000E001E000F0E4B9DA
:107B00000E2070BD08B504228DF800208DF80110FC
:107B10006946FFF729FF08BD10B588B0044620214B
:107B20006846FEF7BCFC0949CDE9021400208DF837
:107B30000000E18DADF81010ADF812002289694601
:107B4000E06D04F04DF808B010BD0000BF9D0200CC
:107B500010B50A46014610460A8894B0112A31D061
:107B6000362A06D0392A40D114B0BDE8104001F0C1
:107B7000F5BC04228DF80020CA890A31002A34D0CD
:107B80000A88C38D9A4205D190F828208DF80620E6
:107B9000C28C07E0038F9A4227D190F832208DF8EB
:107BA0000620028EADF80420CA88ADF80820898826
:107BB000012905D19DF8091021F003018DF8091064
:107BC000016810E004460089898888420DD14FF68B
:107BD000FF702081462104F11400FEF760FC0220B2
:107BE0008DF8000021686846884714B010BD000079
:107BF000F0B595B00C46074650216846FEF74FFC9D
:107C00006088ADF80200207858B1022801D0012820
:107C100005D101208DF8000039686846884715B005
:107C2000F0BDA088A0F5C0511139F8D1A079012884
:107C3000F5D100252BE000BF05EBC50004EB4006A5
:107C400036F80E0FA0F52850443805281DD2DFE87D
:107C500000F003060F281800314604A813E031464F
:107C60000DF13E0000F07CFF7089ADF848000CE09B
:107C700031460DF12E0000F073FF7089ADF8380029
:107C800003E0314609A800F06BFF6D1CEDB2207ACD
:107C9000A842D1D802A803F007F90028BCD00020E0
:107CA000B8E731460DF11A00EDE708B505228DF869
:107CB00000208DF801106946FFF756FE08BD000050
:107CC00010B588B0044620216846FEF7E8FB094954
:107CD000CDE9021400208DF80000218FADF81010BE
:107CE000ADF8120022896946E06D03F079FF08B013
:107CF00010BD0000BF9D020070B5040012D0014607
:107D00001C221448FEF7B2FB1248134D0560206890
:107D100050B17ADF002806D12068016829604068E8
:107D2000686005E00E2070BD0B487BDF0028FAD1AB
:107D300008484FF6FF711438084A20F8041B05491B
:107D4000343901600021FFF73DF90028EBD0032012
:107D500070BD0000C4310020F0280020151B030076
:107D600010B5044600F0A6F8002805D02146BDE86D
:107D70001040024803F09EBD10BD0000F03100200D
:107D800070B515460E46044609F004FF002809D0D8
:107D9000054800EB8400C0692A463146BDE87040C2
:107DA00001F0F2BF70BD0000E031002010B50446C4
:107DB00000F080F8002805D02146BDE810400248B8
:107DC00003F078BD10BD0000F831002010B5044666
:107DD00000F070F8002805D02146BDE810400248A8
:107DE00003F068BD10BD0000F431002070B50546F9
:107DF000002400F05FF838B12946044803F05AFD2A
:107E000008B1022400E00124204670BDEC310020BE
:107E100070B50546002400F04DF838B129460448F5
:107E200003F048FD08B1022400E00124204670BDA3
:107E3000E831002010B51821034803F016FD18287A
:107E400000D0C0B210BD0000E031002070B5054682
:107E50000C46084609F09EFE60B1284600F02AF85C
:107E600040B10548294600EB8400BDE870401C3055
:107E700003F020BD002070BDE031002070B5054644
:107E800016460C46084609F085FE00280ED0284606
:107E900000F010F8002809D00548324600EB8400B5
:107EA0002946BDE870401C3001F03CBF70BD0000A9
:107EB000E0310020142801D300207047014601481A
:107EC00003F0F8BCE431002070B540B10C4D2978C6
:107ED00039B1044608F076FA28B1002070BD0E20B2
:107EE00070BD082070BDE868062807D205492268E1
:107EF00001EB8001401C0A60E860EEE7042070BDE1
:107F0000F82800205C32002010B558B103684BB14E
:107F100042683AB1044900200124C8600C70C1E9EC
:107F2000013210BD0E2010BDF8280020002827D0F7
:107F3000002925D0134A1278002A21D00A46018848
:107F4000112911D0302907D0322909D0332917D16E
:107F5000011D104606F06CB8011D104606F02CB944
:107F6000011D104605F074BF8088B2F8CA1288421D
:107F700006D1002082F8C8024FF6FF70A2F8CA02AC
:107F800070470000F828002048B1084A137843B130
:107F9000D26832B190F8C8222AB1112070470E2061
:107FA00070470820704701F02DB90000F828002024
:107FB0007CB5054608880C460930904201D90C2052
:107FC0007CBD68466DDF0028FAD1218808206854FE
:107FD00020881B21401C80B2208029542088401C0E
:107FE00080B220802844DDF801100160BDF8051042
:107FF00081802088801D80B220809DF80010490873
:1080000000D0012129542088401C208000207CBD04
:1080100038B50188264D0446212937D012DC254881
:10802000254A1029A0EB02004FEAD0004FF00302CE
:1080300002EB00400ED0112931D1BDE838401FA11C
:1080400004F05ABD3B292BD0562928D18088132112
:1080500076DF15E01DA104F04FFD072000F024FBA2
:1080600008B1FEF79DFF1248A1886980001DFFF747
:108070008BFF08B1FEF794FF6988174803F030FEC4
:1080800000280CD0BDE83840FEF78ABF00200090E1
:10809000A08869468FDF002801D0FEF781FF38BD38
:1080A0004FF6FF706880A088132176DFE8E70000B4
:1080B000502200202C4003006C3F0300446973638E
:1080C0006F6E6E65637465642E000000436F6E6EA4
:1080D00065637465642E0000B42B002010B51A4C43
:1080E0000188606810290ED011292BD1401E6060D4
:1080F00028D1FEF724FD002824D02168002921D0B2
:10810000BDE810400847D0B900210122084600F020
:10811000A9FA08B107280FD107220221012000F097
:10812000A1FA08B1072807D104220221002000F09B
:1081300099FA20B1072802D0216801B18847606808
:10814000401C606010BD0000E82800202DE9F047C9
:1081500001883B4E40F2F3194FF6FF7510291BD0F2
:1081600011293ED0122954D0502946D1C188F28914
:10817000841D914241D1618902293ED186883046D1
:1081800002F086FD050038D004F10C0000F02AF959
:10819000A8B3294630464EE0C17B878804460129B2
:1081A0002BD1A846284602F073FD050017D02F807A
:1081B00000202872234843464A460168C5F80A1041
:1081C0004068C5F80E0004F1100105F10A0002F044
:1081D00023FE6872F08900280FD129462AE0042086
:1081E00013E0808802F054FD040006D06068FEF7BA
:1081F00051FF08B108F062FC2580BDE8F087FFE779
:108200006868FEF747FF0028F7D0BDE8F04708F0A0
:1082100055BC87880646384602F03AFD0400ECD08B
:108220002B464A4606F1080104F10A0002F0F4FD6B
:10823000607221463846BDE8F04700F091BD00006D
:10824000C4310020F02800202DE9F04F0446868834
:108250000188424897B0834610290CD0112950D08C
:10826000103019296AD01A2974D1217A0C09042CEA
:108270004DD301224CE0394D083DA868C0430B9016
:1082800069680BA803F03AFB0B990CA800F003FDFA
:108290002C220CA96846FEF7E9F80027E946A84613
:1082A00010E000BF09EB47005FF00005B0F804A044
:1082B00008EB85005146001D03F0BCFA6D1C1E2D15
:1082C000F6D37F1C0098B842ECD8142E05D317B013
:1082D0000420BDE8F04FFEF763BE3146584603F078
:1082E000F4FA314608F1040003F0EFFAE07B0228CB
:1082F00030D117B03146BDE8F04F1848001D03F0EB
:10830000E4BA17B03146BDE8F04F03F093BA00224B
:10831000314601F007FD032C01D3012200E00022C9
:108320000E4831460C3001F0FDFC022C01D3012235
:1083300000E0002209483146083006E0217A002991
:1083400008D1617AC1F3C002314617B0BDE8F04FE1
:1083500001F0E8BC17B0BDE8F08F0000E831002064
:1083600070B51F4E044686B07078002836D020883D
:10837000A588102811D031782846FFF767FD00281E
:108380002CD1204602F0B4FA204608F047FD06B092
:108390002046BDE8704001F04FBE00208DF800007F
:1083A000142101A8FEF77BF801208DF804004FF698
:1083B000FF70ADF8080004F108000390ADF8065016
:1083C000CDF810D001A801F061FA9DF800203178B5
:1083D0002846FFF753FD9DF80000D0E706B070BDBA
:1083E00038290020007800F0010070470149085C3E
:1083F00070470000B42103000649095C4FF0A0401B
:10840000D0F81005C84010F0010000D0012080F025
:1084100001007047B42103002DE9FC410646C00766
:108420004FF000050ED0104F00240122385D00955A
:1084300000231146019504F091F8641C042CF4D338
:1084400000F046F8B0070DD5074E0024361D002277
:10845000305D032300951146019504F07FF8641CFC
:10846000042CF4D3BDE8FC81B021030007490B5C68
:108470004FF0A041D1F804250120984020EA0203E2
:10848000C1F808351040C1F80C057047B021030051
:108490000249085C012104F018B90000B021030072
:1084A0000249085C002104F010B90000B02103006B
:1084B0000649095C4FF0A040D0F80405C84010F010
:1084C000010000D0012080F001007047B0210300BE
:1084D00010B500242046FFF7DBFF641C042CF9D301
:1084E00010BD10B500242046FFF7DAFF641C042CF1
:1084F000F9D310BD10B50246064B4FF0FF300021F6
:108500005C5C944201D1084610BD491C0429F7D394
:1085100010BD0000B421030070B50C4E0C004FF0EC
:10852000000530600BD0012000F06AF808B102208D
:1085300004E0002000F064F800B10B2020707068A7
:1085400010B9FEF7FCFA0546284670BDE828002061
:1085500010B5002000F0E2F908B1062806D101208C
:1085600000F0DCF908B1062800D1002010BD0000A1
:108570002DE9F0470D468146FFF7BCFF044604286D
:1085800036D2DFF874801B481C4EA8F10C0725B3C7
:10859000012D0ED0022D2BD104EB44003044457840
:1085A000002D25D0B968002922D02846BDE8F04723
:1085B000084704EB4401755C0E44717849B10E4ADA
:1085C0004FF48041093A8068FEF73AFD08B987F810
:1085D0000390B17808F80410E2E78068FEF75AFDCE
:1085E00004EB4401314418F804008D78A842D7D038
:1085F000BDE8F087B82103008428002080310020E6
:10860000042801D2FFF7F8BE0020704713494FF647
:10861000FF720E28098918D005DC04280BD00A281F
:108620001BD108F0E7BB0F2813D0102815D19142B9
:1086300013D0FEF7A9BB0A481321408876DF08282B
:108640000BD0002809D0FEF7ABBC914205D003F057
:108650000BB8914201D009F081B97047402B00203E
:108660005022002070B50023042810D20D4D00EBDD
:108670004004012A02D101290CD00022094E00EB4E
:108680004000304461B1012906D0022906D00723F9
:10869000184670BD0E30C2B22A55F9E74270F7E7AE
:1086A0008270F5E780310020044A014600201279EB
:1086B000D20702D0084600F04DB870477828002055
:1086C00070B506461E480024C0E90161B00720D5F8
:1086D0000025012211462846FFF7C4FF6D1C044601
:1086E000042D02D2002CF4D013E094B940F23332BE
:1086F00004211448FEF7D2FB04000AD1FEF7BCFBAC
:10870000040006D10F48104A0021001FFEF75AFC52
:108710000446F00712D00120FFF77EFE74B9094825
:108720000A4A00210C38FEF74DFC040006D105482A
:10873000074A01210838FEF745FC0446204670BD73
:1087400078280020C4210300298A020021AF0200FA
:10875000816D02002DE9F05F6E4C054600266078C1
:10876000B34618B184F801B002F0C2FB6A4F4FF46F
:108770007A694FF4C87A4FF00108182D69D2DFE802
:1087800005F00C1313384754696E727B727BC584F5
:1087900084848484B3B6B9BCC5C502F0A9FB38682B
:1087A000FEF778FC06465CE00020FFF781FE00281B
:1087B0004FF0000008D0FFF76BFE022D02D14FF4FE
:1087C000E16008E0484606E0FFF76AFE022D01D1AD
:1087D000C82000E05046410CC0034FF47A72801864
:1087E00041F10001257052000023FDF7FBFD014619
:1087F0002AE00020FFF75CFE00284FF0000004D0C4
:10880000FFF746FE4FF44870E5E7FFF749FEDFE764
:108810000020FFF74DFE00284FF0000002D0FFF7C8
:1088200037FECFE7FFF73CFED4E70020FFF740FE1E
:1088300000284FF0000002D0FFF72AFE01E0FFF70A
:108840002FFE257040F6CD4100223868FEF7F8FB78
:10885000064646E00020FFF709FE257008E00020EC
:1088600051E025703DE084F801800120FFF7FEFD16
:10887000002240F26661E8E784F801800120FFF7FA
:10888000F5FD00224FF40051DFE77868FEF702FCA7
:108890000646D5F1110000D02EB10220FFF7F8FDF9
:1088A00084F802B01DE0012816D980B2C8214843DF
:1088B000C117C90341EA5041C0034FF47A728018CE
:1088C00041F1000152000023FDF78CFD014600221A
:1088D0007868FEF7B5FB06460220FFF7E1FD84F855
:1088E00002803046BDE8F09F02F002FBB9E702F0DB
:1088F000FFFAB4E702F0FCFA04E002F0F9FA002013
:10890000FFF7CEFD0120FFF7CBFDAAE7FFF7E9FD5A
:10891000A7E7000078280020B8210300012109F012
:10892000C8B900002DE9F84F0546861C00208DF8D7
:10893000000091460F464FF0010A6846FEF7CCFB57
:108940001B4C04F21C4860683860D4E90101194FDF
:10895000401A3968081A0EE00121404602F0C8FFAB
:1089600002F076FC0146404602F0C2FFD4E9010164
:10897000401A3968081A401C8642EDD8B9F1000F38
:1089800003D0052065F3891002E0062065F39F50AF
:1089900061683A68114004EB8101C8606068304446
:1089A00060609DF80000FEF7BBFB5046BDE8F88F05
:1089B000E0390020D02A002070B50D4604460A296F
:1089C00002D10D21FFF7F8FFA0682268411CA160C9
:1089D0001554D4E90101814204D32046BDE870401A
:1089E00003F081BA70BD000004488168406881428C
:1089F00001D101207047002070470000E0390020BD
:108A0000034630B5074800210478426806E000BFFD
:108A100002EBC10005789D4203D0491CA142F7DB5F
:108A2000002030BD082A002000780221FFF7A0BDF9
:108A30001CB5044602F080F800236A46092106F0BE
:108A400001F8052805D10348012241792046FFF7A6
:108A500015FA1CBD082900201CB504460020009012
:108A600042F6A620ADF8000001208DF8020008486B
:108A700001AA6946006801902046A0DF002805D1C0
:108A80000448012281792046FFF7F8F91CBD000057
:108A9000602203000829002070B58AB00E46054602
:108AA000144620216846FDF7FAFC8DF82040200A84
:108AB0008DF821000C49CDE9021501208DF8000048
:108AC0000221ADF8161008A906910021ADF8126038
:108AD000ADF814108DF810002A896946E86D03F08E
:108AE0007FF80AB070BD0000BF9D020005494FF03D
:108AF000FF32082841F8202002D3084480F848209B
:108B0000704700006C350020F0B54FF0FF3512B112
:108B10000023082601E008230C260C4C05E000BFCA
:108B200054F823707F1C04D05B1CB342F8D3284652
:108B3000F0BD26185DB286F8305044F82310002AA4
:108B4000F5D1E11881F84800F1E700006C3500200C
:108B50000249084490F93000704700006C3500204D
:108B60000A6802604A684260098901817047000012
:108B700030B589B00D46044620216846FDF78FFCCC
:108B800094F8C602002300EB8001C1EB801094F83A
:108B9000C51204EB400041B1491EC9B201EBC1014D
:108BA00000EB4101498A491C00E0C188008961F35A
:108BB0000F0360F31F4303208DF800000548CDE943
:108BC0000204054804932A466946806803F008F8C1
:108BD00009B030BDB5910200F828002070B50446F8
:108BE0004FF6FF750A462846AC4209D14FF480740F
:108BF0002146104602F039FE80B2A0420BD070BD73
:108C0000FF2CFCD82146104602F01FFE90F0010F09
:108C100001D0204670BD284670BD000070B5084CDC
:108C2000050009D010342168002907D008682060A9
:108C3000496828468847F6E70834F4E770BD000025
:108C400058350020054A012120B1012805D1917035
:108C5000FFF7E4BF51700020FAE770475835002055
:108C600010B5D0E90234D1E90220D11AA04101D3D4
:108C7000012010BD002010BD10B502460020138851
:108C800006E0546834F810408C4203D0401C80B297
:108C90008342F6D810BD73B58CB006460020009014
:108CA0000D9880B100246D4621460DA802F002FE09
:108CB00030B1009805EB400084800098401C009083
:108CC000641C142CF0D32C2269463046FDF7CEFBF1
:108CD0000EB070BD2DE9F04117880646B81D144648
:108CE0000D46984202D90C20BDE8F0813188072258
:108CF00006290AD34FF4486C4FF6FF73614501D93A
:108D0000994202D17088062801D21046ECE76045EE
:108D100001D99842F9D1994203D0984201D08142B9
:108D2000F3D80520E85520881221401C80B220800D
:108D300029542088401C80B220804119308808F0D6
:108D4000F8FD2188084480B220804119708808F01D
:108D5000F0FD2188084420800020C5E7FEF720B9F7
:108D600038B54A7A0F4B62B100220A72596900295C
:108D700006D001228DF80020ADF802006846884731
:108D800038BD0A7A62B19B684C6802461946204693
:108D9000FEF756F90028F3D0BDE8384007F08EBE44
:108DA0005B68F1E7C4310020F0B585B016460F4688
:108DB00004461D4614220B496846FDF757FB0A4836
:108DC0008DF80870ADF80240ADF80A608DF80C50CF
:108DD000017800222046FFF751F8684600F06CFD4C
:108DE00005B0F0BDC8230300C829002070B5104E9F
:108DF00005460C46307848B90E4A00210E48FEF769
:108E0000E1F808B1FEF7CCF8012030700A480022E2
:108E100065F30F0264F317424FF4C0410068FEF798
:108E20000FF9002803D0BDE87040FEF7B9B870BD57
:108E300048290020398F02007023030070B588B0E4
:108E40000646002005900690ADF81410ADF81610F7
:108E50000190029001AA05A9304690DF050021D0BB
:108E600004F044FB0346114811493246401AC10838
:108E7000012000EB014004460E4903F048FEBDF816
:108E8000042012B9BDF8060028B1BDF8063020460E
:108E900009A103F03CFEBDF808201AB1204616498E
:108EA00003F02EFE08B0284670BD00008C3F030082
:108EB0006C3F0300642C0300546865207265717573
:108EC00065737465642054582F5258207061636B29
:108ED0006574206C656E67746820697320746F6FA9
:108EE000206C6F6E672062792025752F2575206FA5
:108EF00063746574732E0000B02C030001460148B2
:108F0000FEF776BE402B002070B5044609480121CB
:108F100002F009FDBFF35F8F0025002808D120462D
:108F200002F00AF9002803D1BFF35F8F0148056002
:108F300070BD000014290020C0F3074180B2FDF786
:108F400033BD00002DE9FF410C4620B14FF406402F
:108F500004B0BDE8F0812079002748F2096538B1F6
:108F600041F61D5601281BD0022826D0681DEFE7C8
:108F70000220207102970397E0680190694601A8DA
:108F800007F040F950B102988188E1800088208183
:108F9000BDF80010029807F0B3F9D9E72846D7E7E3
:108FA0000A4B6A460021A01D07F0E4F838B10749D2
:108FB00018398F61CF61A842CAD13046C8E703484B
:108FC0008188019807F09CF9F5E70000882A0020C5
:108FD0002DE9F04389B00F460546914620216846A9
:108FE000FDF75DFA95F8C60295F8C54200EB8001E1
:108FF000C1EB801005EB400604EBC40006EB40011A
:109000003279601C0A31904232D108AB00222846E6
:1090100001F024FF78B310E0401EA04201D10020EF
:1090200004E004EBC40006EB40001C30804602461E
:1090300008AB284601F012FF90B1002038700420E0
:109040008DF8000008984A46CDE903500C4802907C
:109050000C486946806802F0C3FD09B0BDE8F083A2
:1090600095F8C5024146401C641C85F8C502E4B26F
:109070003079A042D0D8012038700020EDE7000000
:10908000B5910200F828002070B500240F4D10E0C3
:10909000686800EBC406307804F052FB717801294F
:1090A00001D0012100E000214140307800F058FB60
:1090B000641C28788442EBDBD5E90401084303D023
:1090C000BDE8704008F082BA70BD0000082A002098
:1090D00030B59FB00C4605467C216846FDF7DFF9A8
:1090E000ADF8024003208DF8000004480195416866
:1090F000002901D0684688471FB030BDF8280020FD
:109100002DE9F041044690F8C602884600EB800144
:10911000C1EB801004EB40061746304607F052F9C9
:10912000050042D0D4F8CC0206283ED204EBC01091
:109130007622A0F8D272D4F8CC02314604EBC010EB
:1091400000F53570FDF792F90026B8F1000F06D052
:10915000D4F8CC0204EBC01080F8D06206E0D4F85A
:10916000CC12022004EBC11181F8D002D4F8CC0259
:1091700004EBC010C0F84C53D4F8CC020C4D401C8A
:10918000C4F8CC02E96888420FD12746002407E0E2
:1091900007EBC41101F53470D1F84C138847641CF7
:1091A000E8688442F4D3C7F8CC62BDE8F0810000DF
:1091B000F8280020F0B515469FB0002281F8C8229B
:1091C000074691F8C6020C4600EB8002C2EB801005
:1091D00001EB400007F0F6F8060009D07C220849B0
:1091E0006846FDF743F9ADF8025068460197B0476D
:1091F0001FB029462046BDE8F040FFF769BF0000D8
:10920000E4210300F0B50D4689B004464FF4BA617D
:10921000FDF745F920216846FDF741F9154E29462D
:10922000B06802F0A5FC002821D1A4F8CA52C4F805
:10923000CC0284F8C70284F8C60284F8C5020E483E
:1092400001272A460068206002208DF80000ADF852
:1092500010702068CDF812000848CDE90204694674
:10926000B06802F0BDFC002801D184F8C87209B0D2
:10927000F0BD0000F82800205C320020B59102000B
:1092800010B50021024802F04EFB80F3100010BD23
:10929000FC3D00204FF480328A400168C1F8482329
:1092A0000068C0F8082370474FF4A07202EB8101F8
:1092B00089B200F0C5BA2DE9F04105460E464FF4DB
:1092C000A07000EB860081B228684FF48034B4406F
:1092D000984622F07F47C0F808432868C0F8484302
:1092E000286803F096FE286800EB8600C0F84075F9
:1092F0002868C0F84443B8F1000F02D02868C0F8CD
:109300000443BDE8F0810068D0F804057047000010
:1093100070B54379234C44F823204279231D03EB95
:10932000C202224C1579204A121BD4082DB10825FF
:10933000022000EB04401EA130E005680A88C5F851
:10934000082590F904208978002A4FEA411104DBAE
:1093500002F1E02282F8001405E002F00F0202F1AF
:10936000E02282F8141D90F904100122002909DB83
:1093700001F01F0502FA05F54909890001F1E02114
:10938000C1F800514179002503EBC1010A7141790F
:1093900043F83100032000EB04400EA103F0ACFBC6
:1093A000284670BD642A00200C4003006C3F030077
:1093B00052544320696E7374616E636520616C72F0
:1093C0006561647920696E697469616C697A656444
:1093D0002E0000005254433A20696E697469616C32
:1093E000697A65642E00000090F90400002809DB0A
:1093F00000F01F02012191404009800000F1E020AF
:10940000C0F8001270470A46022100F09FB94FF4DD
:10941000827100F015BA0068012101607047006890
:109420000121416070472DE9F05F07460C464FF47B
:10943000A07000EB84001FFA80FA38684FF4803681
:10944000A6409B4622F07F45C0F848633868C0F8C4
:1094500008633868D0F8048500EB8402D2F84095A0
:10946000C2F840855146386803F0D3FDA9EB0800E7
:1094700020F07F40012806D1102004F0A3F85146C7
:10948000386803F0C6FD3868D0F80485C0F8446336
:10949000A5EB080121F07F413868012900EB840029
:1094A00010D0C0F840553868D0F804156FF07F4CE4
:1094B0006A1A521E22F07F42ACEB0B03934217D381
:1094C00062B118E06D1CC0F84055102004F07AF825
:1094D0003868D0F8040540450AD10CE000EB840060
:1094E0006D1CC0F840553868D0F80405884202D099
:1094F0000D20BDE8F09F01223146384600F026F9E4
:109500000020F6E713460A460021FFF74DBC000095
:109510002DE9F843104D0F4680461E469146694698
:10952000286802F05BF9040014D01C21FCF7B7FF97
:1095300001202071C4F81490380BC4F80080C4E9ED
:1095400002606946286802F06AF906F047FD0020CB
:10955000BDE8F8830420FBE7C024030010B594B0F5
:10956000044603208DF80000C8890A3102282BD355
:109570000A88B4F84230801E9A4205D194F83C2003
:109580008DF80620628F09E0B4F852309A421BD160
:1095900094F84C208DF80620B4F84A20ADF8042049
:1095A0008A798DF80820CA798DF80920E26882420C
:1095B00000D210460390206904900831039AFCF70A
:1095C00055FF21686846884714B010BD10B5037870
:1095D0000022072B06D2DFE803F00504061020293D
:1095E00030000A7010BD01230B7003898B818388C2
:1095F000CB81C06888600A7410BD02220A7002899B
:109600008A818288CA81C2688A60807D062802D0E9
:109610000020087410BD0120FBE703220A70C288F5
:109620008A810289CA81C068886010BD04230B70DA
:10963000C0888881CA818A6010BD0520087010BD6D
:1096400070B5064D0646002455F8241009B1304681
:109650008847641C042CF7D370BD0000B836002086
:1096600030B50446006887B00D46806800281FD0DA
:1096700018216846FCF713FF0195A0680590207932
:1096800010B1012810D107E001208DF800002069F9
:109690000290E068039005E002208DF80000E06889
:1096A00000030290606904902068816868468847DA
:1096B00007B030BDF0B585B017460C0005463AD06E
:1096C000112C38D0082C36D01C481D49401AC60829
:1096D0000D2C11D0204603F009FF0246012000EBBB
:1096E00006402B46174903F012FA2A46082168461D
:1096F00002F028F802941BE0022000EB06402A4604
:10970000114903F0FDF92A460421684602F01AF8CF
:1097100027B13878C00701D0012000E002208DF881
:10972000080000208DF80C0041F20110ADF80A008D
:10973000684600F0CFF805B0F0BD0000C43F03005C
:109740006C3F030020370300103603000368C3F8A2
:109750004413002A02D00068C0F8041370470000C8
:109760002DE9F84F0E463449804601EB5001C00701
:10977000097801D00F0901E001F00F074FF000094F
:10978000424601204946FCF75EFEDFF8B0A00446E1
:109790000D46052F4ED2DFE807F003161B282C00DC
:1097A000002E47D00121404607F0CEFD8DF80090F5
:1097B0006846FDF791FC5046D0E904120C4315436E
:1097C000CAE9044532E00EB1022114E0002112E0A2
:1097D0004EB10321404607F0B7FD4046BDE8F84FC3
:1097E000012108F0EFB9012105E0002E22D104216A
:1097F00001E02EB103214046BDE8F84F07F0A4BDBB
:109800000021404607F0A0FD0021404608F0DAF9AB
:109810008DF800906846FDF75FFC5046E243D0E9C2
:1098200004341A4024EA0501CAE904219DF8000025
:10983000FDF776FCBDE8F88F18360020082A0020D6
:1098400010B5006842581AB103F0E3FB012010BDC7
:10985000002010BD10B50446408801F06DF9A080CD
:10986000024801682046BDE8104008471029002042
:1098700010B50446808801F0A9F8608002480168AC
:109880002046BDE810400847202900202DE9F0417E
:1098900007460024064E074D05E000BF56F8241089
:1098A00038468847641C28798442F7DBBDE8F0819C
:1098B0000C3500203829002010B50446408801F0FE
:1098C0003BF9A080024801682046BDE810400847E7
:1098D00088230300014909680847000004240300A5
:1098E00070B586B0044614216846FCF7D8FDA089FF
:1098F0000125A0F54040ADF8040020782F4E062841
:1099000033D2DFE800F0320303032C4AA08900F0D1
:10991000EDF930B9E08943F6FE71A0F54040884288
:1099200023D8A07B8DF80800207803280FD00020D2
:109930008DF80900A0680390606850B10A208DF886
:10994000000060680490684604F0CEFF0DE001203E
:10995000EEE709208DF800008DF81050F3E7A0899C
:1099600000F0C4F908B1E08930B17078002801D066
:1099700005F00EF906B070BD606830B10C208DF8AE
:109980000000606802907570DDE70B208DF8000024
:10999000BDF8040005F0A0F9F5E7606848B11520AE
:1099A0008DF80000606802904FF6FF70ADF804007B
:1099B000C9E714208DF80000F6E7000024290020F4
:1099C00038B504460F480078B0B1A4F57F40FF38A1
:1099D0000FD0684606F0A6F988B105210170012173
:1099E0000171C480684606F0ABF906F0E9FA002080
:1099F00038BD48F2036038BD48F2016038BD48F216
:109A0000076038BD902A00200D4808B5007888B15D
:109A1000684606F087F980B106210170684606F0B5
:109A20008FF90848017809B10121017306F0C8FADD
:109A3000002008BD48F2016008BD48F2076008BD7B
:109A4000902A00207C370020F0B587B014216846AA
:109A5000FCF725FD314C207818B16846FFF7F0FD82
:109A60005AE0201D01F041FFA0BB40F6F8700168EC
:109A7000481C02D14FF0102041694FF0805002691C
:109A800040694B1C01D100FB02F125480022016115
:109A9000A1F54051C160234902F0BAFB002826D14C
:109AA00022481C238C222049006801F084FE04F027
:109AB000A7FC05004FF0000615D0022D13D001279A
:109AC000062D16D005A806F02DF9A8B107700C2DAB
:109AD0001DD200E020E0DFE805F01A121A121A1970
:109AE0001A191A1416142670666048F20A6007B034
:109AF000F0BD27706660B0E748F20760F7E70671CF
:109B000005E0032100E00221017100E0077105A8D2
:109B100006F016F906F054FA0020E8E7902A002033
:109B20002C2B0020D0240300C8360020382403004A
:109B300038B5040014D0694606F064FBB0B1BDF836
:109B4000000000EB80010B4800EB8100C16851B1BF
:109B5000A17A41B1C168491EC1600020A07238BD20
:109B600048F2046038BD48F2056038BD48F209602B
:109B700038BD0000543700201FB501A9684606F023
:109B8000F9FA04B010BD07B513460A46694600202D
:109B900006F0F0FA0EBD07B513460A4600216846E6
:109BA00006F0E8FA0EBD20B119B100680860002087
:109BB000704748F204607047F8B50D46040018D0AD
:109BC000BDB1694606F01EFBB0B1BDF800000C49FE
:109BD00000EB800001EB800001210C30666801F091
:109BE00087FE2E6060680C3068600120A072002043
:109BF000F8BD48F20460F8BD48F20960F8BD000005
:109C00005437002018B10323002208F095B948F218
:109C1000046070470223002208F08EB9094910B58C
:109C20000A69042A0AD0084A096942F8210005484D
:109C30000121103001F05CFE002010BD48F20B60E5
:109C400010BD0000702A0020B83600202DE9F84F22
:109C5000044624480078D8B1F4B112212046FCF71C
:109C60001EFC0320DFF880902080002504F11008FE
:109C700004F10E0A05EB850109EB81063089718933
:109C8000084487B2706804F045FB032807D009E058
:109C900048F20160BDE8F88F48F20460FAE72088D6
:109CA000401E20806088F1680844608020897189A6
:109CB00008442081608938446081C7F58060A189AB
:109CC00080B2814200D2A0815346A21D211D2846A8
:109CD000CDF8008006F032FB6D1CADB2022DC9D369
:109CE0000020D7E7902A00205437002043F6FE7169
:109CF000A0F54040884201D80120704700207047FD
:109D000010B504460078182802D1FEF793F82070A9
:109D100010BD10B504460078182802D1FEF78AF865
:109D2000207010BD0AB101F0D0BD01F083BD70B547
:109D30000D460446B0F81414D0F810040122FDF7C3
:109D400014FC00B1057004F13C0204F5826104F1D9
:109D5000540072DF70BD000070B513460022054646
:109D6000112900D10122074C33B12179FEF786F881
:109D700000226178284600E06178BDE87040FEF777
:109D80007DB80000D0290020F7B517460E0011D08D
:109D90000098002560B100242146684601F08AFD44
:109DA00018B1A0B23946B0476D1C641C142CF3D313
:109DB0002846FEBD0020FEBD406806F05FB8496839
:109DC000002900D00847704770B50D4601F1100416
:109DD000C98A102901D9092070BD02F0A6FF686068
:109DE00030B1E2880023A16803F005F8002070BDBF
:109DF000042070BD70B50D4601F110048969098811
:109E0000102901D9092070BD891C02F08EFF6860FD
:109E100068B100230222A16802F0EDFFA068E168AA
:109E200002230288686802F0E6FF002070BD04206B
:109E300070BD000070B510B14FF4064070BD1C4CF1
:109E40000025207B08B1257301E000F0A5F82078FB
:109E500008282AD2DFE800F02904080C102914226F
:109E6000BDE8704000F026B8BDE8704000F082B850
:109E7000BDE8704000F064B8BDE8704000F040B844
:109E80000620207060880A4900EB8000283901EB29
:109E900080004068BDE8704004F092BA072020704E
:109EA0006560BDE8704004F099BA48F20E6070BD7C
:109EB0007C3700201149F0B48A1C00200346A1F130
:109EC00028050C18A67A4EB1A37200EB800405EBAE
:109ED0008404E66816B9247C012C0AD0401C80B2A8
:109EE0000228EED30B704B804B60F0BC41F61D5046
:109EF00070471080F0BC00F03DB800007C370020B7
:109F00000C48418801EB8102A0F1280101EB82019C
:109F1000CA6852B105210170074802218180016899
:109F200000230122054802F0D7B8042202704968D4
:109F3000F6E700007C370020982A00202C2B002018
:109F400038B50A49084803240B684268898803EB3E
:109F5000810153880470DB1C00201B0400909B0BC4
:109F6000034802F00DFA38BD7C370020982A002003
:109F70002C2B0020074910B54888091D06F092F9DE
:109F800018B1BDE81040FFF7DBBFBDE81040FFF798
:109F9000B7BF00007C37002070B5194C0121207834
:109FA00008281AD2DFE800F00419191C25292918FD
:109FB0002089134A401C2081002060802073283AA9
:109FC00000EB800312F8233043B100232518401C16
:109FD00080B2AB720228F3D3217070BD0123F5E784
:109FE0006068084940888A88C01C10448880022024
:109FF00004E000F009F8062000E00720207070BDA2
:10A000007C370020982A00200A49094849880268BC
:10A0100001EB81030749283901EB83014B68036099
:10A020004A6082880A810222828000200874704778
:10A03000982A00207C3700202DE9F04306468088CE
:10A040003288DFF85C8185B00746502A37D010DCB3
:10A050005449554B06F10A05A1EB03014FEAD10122
:10A060004FF0020303EB0144352A3AD0362A07D1D8
:10A0700068E0522A02D0542AF9D102E001F000F837
:10A0800082E0142249496846FCF7F0F9ADF8027005
:10A09000384600F051FDADF8040000F0C9F9002287
:10A0A000444698F804103846FDF7E8FE0022E178AF
:10A0B0003846FDF7E3FE6846FFF7CCFB64E0307BF3
:10A0C000012861D1B07A01285ED13089A0F52451F0
:10A0D000023959D10121384601F026F807F002FD76
:10A0E00052E098F80610FDF7B1FE00284CD000228F
:10A0F00098F806103846FDF7C1FEF288B2F5857F64
:10A1000017D012B120462AA10BE02A88012A03D0D9
:10A11000204636A102F0F4FC6A88012A04D02046C9
:10A1200041A102F0EDFC04E0A98800223846A1DF3D
:10A1300008B1002125E0012298F807103846FDF704
:10A140009DFE21E04FF0000998F80710FDF77EFE14
:10A15000D0B1002298F807103846FDF78FFEF2883C
:10A1600012B1204612A104E0AA88012A04D0204698
:10A170002DA102F0C5FC03E0A87900B101208146C1
:10A180004946384607F044F90022364998F802005B
:10A19000FDF7F6FD05B0BDE8F04306F0DFBC0000BA
:10A1A00008290020743F03006C3F0300B82203001D
:10A1B000556E65787065637465642047415454201A
:10A1C000737461747573207768696C652067657452
:10A1D00074696E6720434152206368617220766122
:10A1E0006C75653A20307825780000004D756C74E8
:10A1F00069706C65202825642920434152206368DA
:10A200006172616374657269737469637320666FE8
:10A21000756E642C207573696E672074686520669E
:10A22000697273742E000000556E657870656374F2
:10A230006564204341522063686172616374657292
:10A2400069737469632076616C7565206C656E67EF
:10A25000746820282564292C2073746F726520305F
:10A260002E0000006572020070B5044600780028D8
:10A2700014D1608800F004FF6588284600F0E8F9F2
:10A2800028B107480122C1782846FDF7F7FD60880C
:10A29000FEF7CEFBBDE8704007F024BC70BD0000A7
:10A2A0000829002070B5204C00252570FDF7C2FD5F
:10A2B0006070FDF7BFFDA070FDF7BCFDE070FDF71D
:10A2C000B9FD2071FDF7B6FD6071FDF7B3FDA0711A
:10A2D000FDF7B0FDE07162780121182A18D0A2784C
:10A2E000182A15D0E278182A12D02279182A0FD00D
:10A2F0006279182A0CD0A279182A09D0182807D018
:10A3000004F10C000560BFF35F8F2170002070BD69
:10A310000648074A801AC00801EB0040054902F0D0
:10A32000EBFB032070BD000008290020743F0300F0
:10A330006C3F0300242903007CB5044600780928FB
:10A3400037D1607A58BB207A1C4E4FF6FF75012832
:10A3500011D0072802D008282BD121E0A08800F0D6
:10A3600035FB0446A84224D0012100F0DDFE204642
:10A37000FEF75EFB1DE0A0886A46012104F0D6F9D5
:10A3800068B90198007850B1A08800F01FFBA8427E
:10A390000FD00122F178FDF771FD06F0DFFB08E038
:10A3A000F068012805D1BFF35F8F044900200C310C
:10A3B0000860BDE87C4007F095BB0000082900203C
:10A3C00010B50B48FEF79FFF094A083AD2E904345A
:10A3D000C018D2E9063244F10001C31A71EB02023F
:10A3E00004D24FF08072801841F1000110BD0000CE
:10A3F000482A002010B5C0B2FEF702FB04460078E0
:10A4000003F09EF901466078012801D0012000E0A8
:10A41000002090EA010F08D00449D1E90401084363
:10A4200003D1BDE8104007F0D1B810BD082A0020C4
:10A430001CB5054AD2E90212CDE900120022694694
:10A4400004F03AFB1CBD0000D022030003484FF685
:10A45000FF718180012101700020704718290020C0
:10A460002DE9FC41804600F067FB0024032501270D
:10A47000A0F57F412646FF3908D06A46082104F03E
:10A4800055F918B90198841D8688056832462B460F
:10A4900021464046B1DF042804D0082804D00B2808
:10A4A00008D002E0112000E00020002F00D10B2096
:10A4B000BDE8FC810027A80701D50125E6E7344364
:10A4C00003D0002426460325E0E706480649424615
:10A4D000401AC008012101EB0040044902F010FBC2
:10A4E000E5E700007C3F03006C3F0300EC2B03001A
:10A4F0002DE9FF47824600F01FFBA0F57F41814612
:10A50000FF3916D03B493C4A0127891AC90807EB95
:10A51000014600BF3A467F1C4FF00008BFB202ABB5
:10A520000821484604F04CF9040007D0072C5ED0FF
:10A530005EE043F2020004B0BDE8F087039D032310
:10A540002A1DA91D50462B60B2DF040004D00C2C3C
:10A5500037D0052C38D038E06A460821484604F048
:10A56000E5F858B1052814D002F0C0FF0246304685
:10A57000534622A102F0CBFA0320DCE70198AA8817
:10A580008088824205D10199A81D891DFBF799FF9A
:10A5900030B14A460821104604F08AF9044627E003
:10A5A0000821484604F07AF948B102F09FFF0346BB
:10A5B00030464A461F4902F0AAFA032418E00B2449
:10A5C00016E04FF0010800E000240821484604F09E
:10A5D00065F940B102F08AFF034630464A46154904
:10A5E00002F095FA0324B8F1000F93D100E00C2497
:10A5F0002046A0E77C3F03006C3F03007064625F6D
:10A60000706565725F646174615F7074725F6765C5
:10A610007428292072657475726E65642025732014
:10A62000666F7220636F6E6E5F68616E646C653A10
:10A63000202564006C2B030004488088A0F57F412E
:10A64000FF3901D006F094BA7047000018290020A5
:10A650000EB502A9019100F06FFA6A46012104F0DB
:10A6600065F808B100200EBD019800780EBD00000D
:10A670002DE9F04107464FF6FF761048B3DF78B179
:10A6800002F034FF02460E480E49401AC00801216C
:10A6900001EB00400C4902F033FA0320BDE8F081E1
:10A6A000064C43F20305A41E324661883846AFDFEC
:10A6B000A842F3D16088401C6080F5E71A29002089
:10A6C0007C3F03006C3F0300202B03002DE9F04189
:10A6D00029492A4B05468088C91A0322DFF8A08041
:10A6E000C9080227A0F5285CA8F5BD6602EB014465
:10A6F000BCF1450C24D0A0F52851463939D1307829
:10A70000012836D10D20FDF7CFFF08B1FCF748FC3A
:10A71000377020461BA102F0EFF9297A204658F83D
:10A7200021201EA102F0ECF96A7A204623A102F052
:10A73000E7F92A69204629A1BDE8F04102F0E0B915
:10A740007078012815D10E20FDF7AEFF08B1FCF797
:10A7500027FC7770204629A102F0CEF9297A2046FD
:10A7600058F821200DA102F0CBF96A7A204629A1E0
:10A77000E2E7BDE8F08100002C4003006C3F0300DD
:10A78000382800204E657720416C65727420737400
:10A790006174653A204F6E2E000000002020436156
:10A7A0007465676F72793A202020202020202020B5
:10A7B00020202020202020202573000020204E75FE
:10A7C0006D626572206F66206E657720616C6572C0
:10A7D00074733A2020202020256400002020546536
:10A7E000787420537472696E6720496E666F726D5B
:10A7F0006174696F6E3A202025730000556E726592
:10A80000616420416C6572742073746174653A20D0
:10A810004F6E2E0020204E756D626572206F66208F
:10A82000756E7265616420616C657274733A202084
:10A8300025640000428800EB82020C328A4201D972
:10A84000022070478188A1F57F42FF3A06D0018837
:10A8500021B18068401C01D0002070470120704762
:10A86000884204D20068401C01D0012070470020BB
:10A8700070473EB5027802230C46B3EB520F17D156
:10A88000B0F80110ADF80010C1788DF80210818881
:10A89000ADF8041080798DF8060002AA01A92046BF
:10A8A000FCF7C6F9032202A96846FBF70AFE08B1C5
:10A8B00000203EBD01203EBD70B50D460446142863
:10A8C00010D2FDF7F7FA68B1084904EB840001EBF8
:10A8D0004000D0F802102960C188A980007AA871D0
:10A8E000002070BD43F2020070BD000074320020F1
:10A8F00070B5018890B0102961D1011D2C226846E5
:10A90000FBF7B4FD9DF804004FF6FF7603213446B3
:10A91000B1EB500F2BD004F08DF89DF804006D467C
:10A9200040080ED001280CD0022820D118E00D9943
:10A93000281D1131FCF7D6F818B100BFBDF82C4026
:10A9400015E00CAA0BA9072004F048F80028EED166
:10A950000DE00D99281D491CFFF78BFF0028EDD154
:10A960000CAA0BA9072004F039F80028F1D1BDF892
:10A970000000B44200EB8001124820F8114000EBC7
:10A9800041000199C0F80210BDF80810C1809DF87F
:10A990000A10017213D0BDF80000ADF82E0000209F
:10A9A000ADF83040084E8DF82C000BAD044600BFCA
:10A9B00056F8241028468847641C022CF8D310B09F
:10A9C00070BD000074320020E42203002DE9F04144
:10A9D0004FF6FF760546B04213D00B4F002400BF60
:10A9E00004EB840037F81000A84206D12046FDF79A
:10A9F00061FA10B12046BDE8F081641CA4B2142CA9
:10AA0000EED33046F7E70000743200203EB50C4626
:10AA1000054604F00FF80BE0BDF80000A04207D097
:10AA20002846029900F00EF810B1BDF800003EBDB6
:10AA300001AA6946072003F0D1FF0028ECD14FF6A8
:10AA4000FF703EBD2DE9F0410C46054600F11107AF
:10AA500001F111061022491C401CFBF732FD48B9D8
:10AA6000681C00F034FA28B1601C00F030FA08B11C
:10AA7000012400E0002431463846FCF733F83B78E7
:10AA80000222B2EB530F0CD00321B1EB530F08D0CD
:10AA90003378B2EB530F04D0B1EB530F01D0012147
:10AAA00000E00021084201D18C4302D00120BDE822
:10AAB000F0810020FBE7018811B9421892780AB1B1
:10AAC00001207047491C0829F7D30020704710B5B2
:10AAD0000C460346FFF7EFFF00280AD018882188AC
:10AAE000884205D10822A11C981CFBF7EAFC08B19A
:10AAF000002010BD012010BD142804D2024A00EB32
:10AB0000800022F8101070477432002070B505469E
:10AB1000FFF75CFF0446284603F00CFE002808D12E
:10AB2000142C06D2034B04EB84024FF6FF7123F87A
:10AB3000121070BD7432002010B50446142808D2DB
:10AB4000FDF7B8F928B1044904EB840031F810008E
:10AB500010BD4FF6FF7010BD743200203EB50446A4
:10AB600003F068FF0EE0019920464631FFF7AFFF82
:10AB700028B9019920462A31FFF7A9FF10B1BDF885
:10AB800008003EBD6A4602A9072003F027FF0028FF
:10AB9000E9D14FF6FF703EBD10B50A4941600A4841
:10ABA00000F0A3FE58B902F001FC07491C238C22D7
:10ABB000087404488C39001F006800F0FCFD002078
:10ABC00010BD0000C4240300283800202DE9F04106
:10ABD0002C4D002420B16C604FF40640BDE8F0819C
:10ABE0000879012250B1284B01280BD0254A0226B2
:10ABF0000832022821D0032829D12CE00A7103F061
:10AC0000EDFB22E05FF0000000EB800113F8211063
:10AC1000022908D0401C80B20228F5D32A706C604B
:10AC200041F61D50DAE700EB800003F8204003EB0B
:10AC30008000406803F0C4FB07E00C719680116847
:10AC400000230122114801F047FA0028C6D06C60A9
:10AC500048F20D60C2E70C480C712830418810683A
:10AC600001EB810703EB8701D1F804C0C2F800C0F3
:10AC70004860B2F804C0A1F808C0968003F82740E5
:10AC8000D8E70000902A0020543700202C2B002009
:10AC90000146034802888A4200D000207047000025
:10ACA000B03100202DE9FC5F0E008346DDE90C4742
:10ACB000C6F1000098469246814600D40846012518
:10ACC00003E000BF90FBFAF06D1C5045FADAA8458E
:10ACD00000D9454624B1002E01DB780700D5641E5B
:10ACE000B80702D5B8F1000F0AD0F80708D13CB177
:10ACF000A54205D220215846641EFDF75DFEF6E709
:10AD0000002E02DA4E462D2102E0780703D52B21D2
:10AD10005846FDF751FE07F0030002280BD1B8F1A9
:10AD2000000F08D13CB1A54205D230215846641E1F
:10AD3000FDF742FEF6E7CDE900474346524631466D
:10AD4000584606F075FEBDE8FC9F000070B50D4644
:10AD5000044600684FF4887102F0E8FB4FF49071EC
:10AD6000206802F0E3FB4FF49271206802F0DEFBF2
:10AD70004FF4A271206802F0D9FB4FF4AC71206847
:10AD800002F0D4FB20681249C0F804132068690758
:10AD900040F30730090E002804DB00F1E02080F8C2
:10ADA000001405E000F00F0000F1E02080F8141D11
:10ADB000206840F30730002809DB00F01F02012162
:10ADC00091404009800000F1E020C0F8001170BD02
:10ADD00010034200024600201268530713D502F008
:10ADE0000300012802D002280CD105E0C2F3831031
:10ADF0000B68801C184404E00223086803EB92529D
:10AE000010440860012070470248007A002800D0F2
:10AE10000120704728380020F0B58488A518944296
:10AE200000D82246A41AC288D6189A4200D81346DF
:10AE3000D21A4B880788BB420CD34088834209D87A
:10AE40008888A04206D3A84204D8C888904201D37B
:10AE5000B04201D90020F0BD0120F0BD10B5098934
:10AE60002AB1D088491C814218D1002010BD90F829
:10AE7000C62202EB8204C4EB821200EB420212896A
:10AE80009142F2D0491C198090F8C61201EB810260
:10AE9000C2EB811100EB4100008902E01980D088EB
:10AEA000401E5880012010BD018A71B1418B61B1F3
:10AEB000818C51B1C18D41B1C18F31B1018E21B1B0
:10AEC000B0F8400008B10120704700207047002111
:10AED000425C0AB101207047491C1029F8D30020B8
:10AEE0007047800701D000207047012070470000A4
:10AEF0000A4810B5807860B1002401E0022C06D029
:10AF00002046FDF7C5FA641C042CF7D310BD0324BA
:10AF1000F6E7BDE81040FDF7DBBA00007828002016
:10AF200003480179C90702D00078FDF713BC7047C8
:10AF30007828002017210180418000210171417192
:10AF40001B218171C17170472DE9FE4F2E4F98462C
:10AF500092460D00814601D000260DE0684600F0C3
:10AF6000E7FB6A460021484603F03CFB3878009E28
:10AF700010B99DF8090098B152463146484606F08E
:10AF8000FBF80446014600224846FEF7E5FE0D2C7C
:10AF900037D008DCA4B3082C33D00B2C09D130E017
:10AFA0000520BDE8FE8F112C1ED0A4F540500238BC
:10AFB00027D0204602F09AFA0246144814494B461C
:10AFC000401AC008012101EB0040124901F09FFD29
:10AFD0005FF00305B8F1000F04D032462146484621
:10AFE000FEF768FB2846DCE72A46F9784846FCF776
:10AFF00045FF5246B9784846FCF740FF0025E9E78F
:10B00000FFE72546E6E70000D0290020C43F030003
:10B010006C3F0300C836030070B50E460C49154658
:10B0200004460978FCF712FF00280FD0204603F0F1
:10B030007FFA00282A463146204603D0BDE87040FA
:10B0400003F07CBABDE87040FEF75CBA70BD00004A
:10B05000C829002070B5094D0646A978FCF7F6FE10
:10B060000446E9783046FCF7F1FE014622463046B8
:10B07000BDE870400123FFF767BF0000D029002022
:10B08000F0B585B00546002714216846FBF707FA9E
:10B09000A5F57F40ADF80250FF3825D02846FFF7D0
:10B0A000DFF9040022D01B481B49401AC6080B2CAC
:10B0B00022D0112C1ED0A4F5405002380ED02046CC
:10B0C00002F014FA0246012000EB06402B46134919
:10B0D00001F01DFD2146284605F0F8FC10483A46CF
:10B0E00081782846FCF7CAFE05B0F0BD0F208DF828
:10B0F00000000BE00127F1E710208DF8000002208E
:10B1000000EB06402A46074901F0FAFC6846FEF7C4
:10B11000A1FBE3E7743F03006C3F0300F429030045
:10B1200008290020482A03000A4602494978FCF70A
:10B13000A5BE0000082900202DE9F041002786B0B7
:10B1400080463E46FFF7D4F904461F481F49401A7F
:10B15000C508112C23D003DCFCB10B2C06D114E064
:10B16000862C1ED0A4F5405002380ED0204602F0A6
:10B17000BDF90246012000EB0540434614A101F051
:10B18000C6FC2146404605F0A1FC39464046FFF783
:10B19000CBFF06B03046BDE8F0810126F5E7012778
:10B1A000F3E714221A496846FBF760F90220ADF86C
:10B1B000028000EB0540424616A101F0A1FC684662
:10B1C000FEF748FBE1E70000743F03006C3F03001B
:10B1D0006773636D5F6C6F63616C5F64625F636113
:10B1E0006368655F75706461746528292072657491
:10B1F00075726E656420257320666F7220636F6EB2
:10B200006E5F68616E646C653A2025640000000022
:10B2100090220300466C6173682066756C6C2E206A
:10B22000436F756C64206E6F742073746F72652049
:10B230006461746120666F7220636F6E6E5F686117
:10B240006E646C653A2025640000000070470000C1
:10B250002DE9FF410026244800F044FB2248001F4E
:10B26000074600F03FFB214C2149A06800900D6883
:10B2700000E000986946284004EB80000C30FFF79E
:10B28000A9FD0028F5D101AA009901EA050304EB04
:10B290008303491CDB6842F82030401C00910228DF
:10B2A000F2D3019800F0030001280BD0022810D13E
:10B2B0000198032101EB90500099BDF80A6001EB61
:10B2C000900005E00198BDF80A60C0F383100844BF
:10B2D0000090384600F003FB08B10098A06004B06D
:10B2E0003046BDE8F0810000F83D0020E039002044
:10B2F000D02A002088B04FF48041002001F07AFC71
:10B3000008B1FBF74DFE01F0CDFAFBF76BFE08B17B
:10B31000FBF746FE4C490320FDF7D2F908B1FBF7D5
:10B320003FFE69460020FDF7F7F808B1FBF738FE4D
:10B330009DF8000002287DD05FF0000501F064FD5B
:10B3400008B1FBF72DFE01F0E5FF08B1FBF728FE81
:10B35000002469460120009401F06CFE08B1FBF75F
:10B360001FFE684601F0E6FE08B1FBF719FE9DF8E6
:10B37000080036A120F00F00401C20F0F000103033
:10B380008DF80800132202A87CDF08B1FBF708FE45
:10B390004FF4C87000940194ADF800004100ADF87E
:10B3A0000440ADF80600ADF8021068467ADF08B137
:10B3B000FBF7F6FD00212A4800F020FB08B1FBF75F
:10B3C000EFFDFBF7D7FB2748009027480190684620
:10B3D000FCF79AFD08B1FBF7E3FDFBF755FC1C21D8
:10B3E0006846FBF75CF84FF4A030CDE900404FF41D
:10B3F000F0200290012003268DF810008DF80C60DB
:10B400001A48ADF80E40CDE905406846FCF774FCDB
:10B4100008B1FBF7C5FD03F0A5FC15481549401A16
:10B42000C00806EB004014A101F066FB2846FBF7BC
:10B43000D7FB00E006E001F043FA0028F9D101F063
:10B44000F7FCF6E7012579E70D8602004E6F72647E
:10B4500069635F416C6572745F4E6F7469662E003C
:10B46000A02B0020FD8E0200242800205D8D02000C
:10B470002C4003006C3F0300416C657274204E6FDA
:10B4800074696669636174696F6E20636C69656E67
:10B4900074206578616D706C652073746172746579
:10B4A000642E000070B5144682880E46054620883A
:10B4B000111D0144921C994201D8FE2A01D90C2089
:10B4C00070BD521C32542088FF21401C80B2208065
:10B4D00031542088401C80B220808119288806F0D1
:10B4E00028FA2188084480B22080AA8842B1A9683D
:10B4F00041B13044FAF7BAFF2088A9880844208077
:10B50000002070BD072070BD2DE9F047C5881E1DC5
:10B51000B6FBF5F78946B6FBF5F1044605FB176C5B
:10B52000407916686843DDF820A0F718001F8742AD
:10B5300000D9C61A166001E02468491E0029FBD113
:10B54000A5EB0C078846B74216D818E004EB0C00B0
:10B55000001D09EB0803BAF1000F3A4602D001467C
:10B56000184600E01946FAF781FF2468F61B4FF0F1
:10B57000000CB844B54201D9374600E02F46002EF2
:10B58000E4D1BDE8F087000030B5024651B101F0CA
:10B5900045FB0021074C08E034F821301568AB4228
:10B5A00002D11160002030BD491C8142F4D3052036
:10B5B00030BD000000000000BFF35F8F00F07AB9DB
:10B5C000F8B50F46017814460546012901D168787F
:10B5D00030B12088821C9A4232D8012902D006E07C
:10B5E0000720F8BD69780144891C994228D8181AA7
:10B5F000801E86B2ADF800602188B81C08446946F8
:10B600007DDF0028EDD12978022904D06878BDF8C3
:10B610000020904205D3BDF80000B04201D80920B7
:10B620000AE00820012905D16978B14202D8ADF8B5
:10B63000001001E0ADF80060BDF80010FE2901D94E
:10B640000C20F8BD2288491CB9542188491C89B2B4
:10B65000218078542088401C2080BDF800100844C8
:10B6600020800020F8BD000070B51A4B1A4C184815
:10B670001B1BDB0801780324012204EB034402298D
:10B6800013D0012919D002701448FCF7A1F905461E
:10B69000204613A101F030FA002D17D0082D15D047
:10B6A0002846BDE87040FBF77BBC02701120FCF718
:10B6B000FBFF0546204611A1ECE700210170074879
:10B6C000FCF77CF90546204612A1E3E770BD0000B7
:10B6D000502200202C4003006C3F0300402B002030
:10B6E0004E657720416C6572742053746174653ABD
:10B6F00020456E61626C65642E0000004E65772007
:10B70000416C6572742053746174653A204F6666AB
:10B710002E0000004E657720416C657274205374D2
:10B720006174653A2044697361626C65642E00003F
:10B73000034A00219268C0E900218160704700003F
:10B74000D029002070B586B00D4606461446142157
:10B750006846FAF7A4FE8DF80050ADF80240204686
:10B76000FFF7EAF9ADF80400142269463046FAF70B
:10B770007DFE06B070BD70B54FF6FF750E46A8424F
:10B7800001D1002000E0401C84B208E02146304690
:10B7900000F090F808B1204670BD641CA4B2FF2CE4
:10B7A000F4D9284670BD10B5FAF77FFD08B1002026
:10B7B00010BD112010BD10B531B1B2FBF3F403FB85
:10B7C00014241CB1092010BD0E2010BD0160002101
:10B7D000416081608281C381084610BD70B50C460E
:10B7E0000546FAF717FD002802D02188286808448A
:10B7F00070BD10B50A8849888A4203D1FAF74CFD1A
:10B80000012010BD002010BD70B50C460546FAF7AA
:10B8100026FD002802D061882868084470BD10B554
:10B820000A8849888A4203D1FAF710FD012010BD29
:10B83000002010BD01F01F0301229A40D2434909A4
:10B8400000EB8100114600F059B80A4601F01F03D1
:10B850000121994010B552090C4600EB820000F01E
:10B860005DF8204000D0012010BD2DE9F041804658
:10B870000D460024481E012101EB501716E058F830
:10B880002400C04390FAA0F0B0FA80F020280CD237
:10B8900000EB4416AE4208D231464046FFF7D5FFD2
:10B8A0000028ECD13046BDE8F081641CA742E6D800
:10B8B0002846F8E74A0950F8220001F01F0201214A
:10B8C0009140084000D00120704701F01F03012281
:10B8D0009A40490900EB8100114600F029B8002187
:10B8E00000F017B8012100F023B8012100F016B8CC
:10B8F00008B56A46FAF725FD009808BD08B56A46FE
:10B90000FAF705FD009808BD08B56A46FAF719FD73
:10B9100008BD08B56A46FAF7FAFC08BD08B56A46DC
:10B92000FAF7E8FC08BD08B56A46FAF7D7FC08BD87
:10B9300008B56A46FAF7DEFC009808BD08B56A4605
:10B94000FAF70CFD009808BD38B5044600258DF8BF
:10B9500000506846FBF7C0FB2168626808689042A7
:10B960000ED9401E08600178238AE26801FB032596
:10B97000227A2168101AC0B20A79824200D2087174
:10B980009DF80000FBF7CCFB284638BD38B50546CE
:10B9900000208DF800000C466846FBF79DFBE86828
:10B9A000298A201AB0FBF1F12A681068431C136041
:10B9B00001709DF80000FBF7B3FB38BD10B530B146
:10B9C000017A42680368891AC9B21A6006E00E203B
:10B9D00010BD03681A68541C1C601170491EC9B25E
:10B9E000F7D2006800210171084610BDC20800F0BE
:10B9F00007030120895C98400840704710B560B18A
:10BA00000161172120F8021B20F8021B1B2100F8FE
:10BA1000021BFFF78FFA002010BD0E2010BD0000A2
:10BA2000F0B5858893B00C46002D39D101880026E9
:10BA30003F4F24293BD006DC102909D011290CD016
:10BA4000232958D14FE03A290BD0552953D129E069
:10BA50000146204602F098FA4DE0A01DFFF76AFA71
:10BA600049E02246408934F8061F814200D8084642
:10BA70006080172800D217206080106970B160794B
:10BA800060B1D7E90001CDE90301ADF80E5060883F
:10BA9000ADF81000136903A9104698476671267126
:10BAA00013B0F0BD0146204602F030FB23E0011D3B
:10BAB0002C2206A8FAF7DAFCBDF81800BDF81C2005
:10BAC00004EBC0014A732269AAB1D7E90423CDE986
:10BAD0000423ADF81200487B8DF81400226920463B
